:100000000C945D000C94C50C0C94EC0C0C948500C5
:100010000C9485000C9485000C9485000C9485004C
:100020000C9485000C9485000C9485000C9485003C
:100030000C9485000C9485000C9485000C9485002C
:100040000C94150B0C9485000C9485000C94850081
:100050000C9485000C9485000C9485000C9485000C
:100060000C9485000C94850000000008000201003B
:100070000003040700000000000000000102040863
:100080001020408001020408102001020408102002
:10009000040404040404040402020202020203032E
:1000A0000303030300000000250028002B000000CC
:1000B0000000240027002A00BF0C11241FBECFEF30
:1000C000D8E0DEBFCDBF12E0A0E0B1E0ECE3FAE1A2
:1000D00002C005900D92AC37B107D9F726E0ACE726
:1000E000B2E001C01D92A430B207E1F710E0CDE507
:1000F000D0E004C02197FE010E94160DCC35D10737
:10010000C9F70E94B00C0C94130D0C940000E2E1AE
:100110000E942C010895E9E00E942C010895EAE074
:100120000E942C010895E1E00E942C010895E3E073
:100130000E942C010895E7E00E942C010895E5E05B
:100140000E942C010895E0E00E942C010895E2E055
:100150000E942C010895E4E00E942C010895ECE037
:100160000E942C010895E8E00E942C010895EEE021
:100170000E942C010895E4E10E942C010895E0E121
:100180000E942C010895E7E10E942C010895E6E009
:100190000E942C010895EBE00E942C010895EDE0EF
:1001A0000E942C010895EFE00E942C010895E1E1E6
:1001B0000E942C010895E3E10E942C010895E5E1DD
:1001C0000E942C010895E6E10E942C0108952196D9
:1001D0008A929A92AA92BA92CA92DA92EA92FA927F
:1001E0000A931A932197E0916901F0916A010080C6
:1001F000F181E02DC083D1830895C0916B01D0912E
:100200006C01E881F981C081D18121961991099110
:10021000F990E990D990C990B990A9909990899056
:10022000219708952F903F90E7E6F1E0CDB7DEB734
:10023000EDBFFEBF3F922F9208952F903F90CDBF0C
:10024000DEBF3F922F920895E0E80E942C010895AE
:10025000E0E40E942C0108952F923F924F925F920A
:100260006F927F922FB62F92CF93DF937E2EF894CA
:10027000E0910001EF5FE0930001E13011F40E9492
:100280001201E0E0E0937901E72DE07849F00E9467
:100290008005F0917A01F17071F00E9433040BC077
:1002A000E72DEC3140F4EE0FF0E0E55BFD4F0190FF
:1002B000F081E02D0995F0917901EF2FE17059F06F
:1002C000F27011F00E94E7008F938F2F0E947B0342
:1002D0008F910E94FD002091000121502093000188
:1002E000222311F40E941D01DF91CF912F902FBE88
:1002F0007F906F905F904F903F902F900895CF9296
:10030000DF92EF92FF920F931F93DC01EC91DB01E0
:100310002C918E2F8170C82ED12CE12CF12C8E2F98
:100320008F7090E0A0E0B0E0B695A795979587957F
:10033000DC01A257BD4F8C91C81AD108E108F10821
:10034000EE70422F417050E060E070E0822F8F70BD
:1003500090E0A0E0B0E0B695A79597958795DC0171
:10036000A257BD4F8C91481B510961097109822F19
:100370008E709701860101701127222733270E2BDB
:100380004170552766277727482B81E090E00417B6
:1003900015072607370710F080E090E01F910F91B6
:1003A000FF90EF90DF90CF9008958F929F92AF9241
:1003B000BF92EF92FF920F931F93CF93DF937C0135
:1003C0004A015B01B694A7949794879442305105F3
:1003D00061057105E0F0440F551F8701040F151FDB
:1003E000E401CC0FDD1FCE0DDF1DB801CE010E9450
:1003F0007F01892B61F0F801908181812881398109
:100400003183208398838983B501A401DBCFDF91F9
:10041000CF911F910F91FF90EF90BF90AF909F9061
:100420008F9008954F925F926F927F928F929F92DA
:10043000AF92BF92CF92DF92EF92FF920F931F93F2
:10044000CF93DF9300D000D000D0CDB7DEB78C01C2
:100450006A017B01DC018C91282F30E040E050E004
:1004600029833A834B835C8346015701880C991C8E
:10047000AA1CBB1C29813A814B815C812815390556
:100480004A055B0508F442C0240135013FEF431AD9
:10049000530A630A730A89819A81AB81BC818415EE
:1004A0009505A605B70580F0B201660F771F600FAE
:1004B000711FC401880F991F800F911F0E947F0137
:1004C000892B11F0530142013401660C771C600E38
:1004D000711ECC0CDD1CD801AC0DBD1DBE83AD83DF
:1004E000B301CD010E947F01892B81F0ED81FE8156
:1004F00090818181D3012D913C911197318320838B
:100500009C9311968C9375016401AECF26960FB61D
:10051000F894DEBF0FBECDBFDF91CF911F910F9139
:10052000FF90EF90DF90CF90BF90AF909F908F9013
:100530007F906F905F904F900895E8EAF4E04081DB
:100540004F5F408350E060E070E0E82FEE0FFF0B5C
:10055000EE5FFD4F0190F081E02D238530E0F90141
:10056000E257FD4F908191509083FA01EE0FFF1FEB
:10057000E855FB4F220F331F9170292B2083818375
:1005800088EA94E00C94D501E8EAF4E040814F5FFA
:10059000408350E060E070E0E82FEE0FFF0BE65084
:1005A000FE4F0190F081E02D9381FA01EE0FFF1FC5
:1005B000E855FB4F9083818388EA94E00C94D50141
:1005C000CF93DF93E8EAF4E080819FEF980F908368
:1005D000D281C38190E0880F991FDC01A855BB4FE1
:1005E0008D919C919383828341E050E060E070E0C4
:1005F000CF010E9412028D2F9C2FDF91CF91089581
:100600008091710190917201A0917301B091740178
:100610008F3F2FEF9207A207B20731F00397A10592
:10062000B10524F481E0089580E0089582E0089502
:10063000880F990BFC01EE5FFD4F0190F081E02DDA
:100640000084F185E02D3097E9F0228121111AC054
:1006500021E02283DC01A650BE4F0D90BC91A02D5D
:1006600013968C9113978183808190E0FC01E2576F
:10067000FD4F208121502083880F991F2170822BEC
:1006800013968C930895880F990BFC01EE5FFD4F34
:100690000190F081E02D0084F185E02D309761F02C
:1006A0002281213049F412822181FC01E650FE4F63
:1006B0000190F081E02D2383089580917501909140
:1006C0007601A0917701B09178014091710150912C
:1006D00072016091730170917401481759076A079C
:1006E0007B0741F0E0916F01F091700121E02483DC
:1006F0000C94C4020895CF93DF93882391F0C091A6
:100700006901D0916A01E0916D01F0916E018481DF
:10071000833049F081E08483809171010E94C4029A
:1007200002C0C0E0D0E0E0916F01F0917001F09361
:100730006E01E0936D0180916B0190916C0190933B
:100740006A01809369018091750130917601209151
:100750007701909178018093710130937201209319
:1007600073019093740192E094830E941803CE0168
:10077000DF91CF910895809171010E944303E09130
:100780006D01F0916E018281882319F085E08483E8
:10079000089514820895CF93DF93282F220F330BEF
:1007A000F901E650FE4FC081D1819A81F901EE5FD7
:1007B000FD4F0190F081E02D2485921770F4911186
:1007C00005C095E09C8391E090937A010E949D0280
:1007D0008A818F5F8A8380E001C084E0DF91CF91BE
:1007E0000895E82FEE0FFF0BE650FE4F0190F081C9
:1007F000E02D118210820C946A0C1F93CF93DF932B
:100800000E94E002182F892F492F092E000C550B4A
:10081000660B770B409375015093760160937701D7
:1008200070937801292F220F330BF901E650FE4F08
:10083000C081D181D0937001C0936F01F901EE5F47
:10084000FD4F2081318130936C0120936B019C819D
:10085000953019F40E94F1031B8310927A01DF9105
:10086000CF911F910895E0917501F0917601EE0FFF
:10087000FF1FE650FE4F0190F081E02D9091AA04F9
:100880008381891730F40E945D030E94FD0383E099
:1008900001C080E080937901089581E0809379011F
:1008A0000C94FD03EF92FF920F931F93CF93DF936E
:1008B000C1E001C0CC0F8A95EAF783E00E94CB0328
:1008C00007E412E0D0E0F80181918F018C2319F048
:1008D0008D2F0E94CB03DF5FD330A9F704E412E031
:1008E00089EDE82E81E0F82ED1E0F80181918F01A9
:1008F0008C2339F0F70180819181FC01D6870E9419
:10090000B904F2E0EF0EF11C82E00734180769F732
:10091000DF91CF911F910F91FF90EF9008950E946A
:10092000670681110E948806E0916D01F0916E01C9
:1009300080819181892B21F0809171010E944F0863
:100940000C94B0070E94670681110E948806E0910E
:100950006D01F0916E0180819181892B21F0809150
:1009600071010E944F080C94980781E080937C02EB
:100970000895AF92BF92CF92DF92EF92FF920F93C2
:100980001F93CF93DF93FC01A081B181AD90BC9008
:10099000E501AC89BD89109739F04285538564859E
:1009A000758530E020E017C0D50155969C938E9355
:1009B000549757969C938E93569715821482138260
:1009C00012825BC012968D919C9113973A2F2B2F18
:1009D000009779F0DC011A96CD90DD90ED90FC90B7
:1009E0001D974C155D056E057F0560F7CD01A32FA2
:1009F000B22F93838283B583A483009719F0EC010F
:100A0000FD83EC83109729F01396FC93EE931297D5
:100A100005C0D5015596FC93EE935497E501AE8938
:100A2000BF891A968D919D910D90BC91A02D08893A
:100A300019892A893B8980179107A207B30780F497
:100A4000041715072607370728F0481759076A07BC
:100A50007B0798F4D5015796FC93EE9356970DC0FB
:100A6000041715072607370740F4481759076A0780
:100A70007B0718F4E501FF8BEE8BDF91CF911F917F
:100A80000F91FF90EF90DF90CF90BF90AF900895BF
:100A9000CF93DF93DC01ED91FC9111970190F081F0
:100AA000E02D848995891296CD91DC911397A81732
:100AB000B90711F4D58BC48B86899789A817B90714
:100AC00011F4D78BC68B209731F014968D919C91A1
:100AD00015979D838C8314960D90BC91A02D109733
:100AE00021F01396DC93CE93129786899789892BF0
:100AF00021F484899589978B868BDF91CF91089516
:100B0000EF92FF920F931F93CF93DF93FC0180919D
:100B10007C02882309F4B5C084859585A685B785B0
:100B20000196A11DB11D84879587A687B78740814F
:100B300051816281738184179507A607B70709F071
:100B4000A0C040895189628973894F5F5F4F6F4FA1
:100B50007F4F84819581A681B78184179507A60769
:100B6000B70718F440E050E0BA01408B518B628B1C
:100B7000738B1486158616861786C689D7892097A3
:100B800009F47FC08A859B85AC85BD8548175907C8
:100B90006A077B0709F075C0CE01DC011296ED9063
:100BA000FC901397E114F10471F0D7011A960D919E
:100BB0001D912D913C911D974017510762077307B6
:100BC00011F4C701EACF2C813D812115310529F0AF
:100BD000D9011396FC92EE921297E114F10429F0D8
:100BE000D70115963C932E93149724893589C21703
:100BF000D30711F4F58AE48AE114F10419F0F78AB5
:100C0000E68A04C024893589378B268B8F01FC0145
:100C100013821282EA80FB80E881F9810280F381ED
:100C2000E02DCE0109954E815F816885798541155A
:100C300051056105710509F18A859B85AC85BD85E6
:100C4000840F951FA61FB71FF80144815581668147
:100C50007781481759076A077B0738F4841B950B7F
:100C6000A60BB70B0197A109B1098A879B87AC87AF
:100C7000BD87CE010E94B90401C01E86E7012097FE
:100C800049F6DF91CF911F910F91FF90EF9008955A
:100C9000FC0182810C94CB030E946706809168015D
:100CA0000895809368010E9452040E94B5040C9438
:100CB0004D040C94690CCF93C82F0E94000381113E
:100CC00002C00E94A60C8C2FCF910C948B008091B7
:100CD00089028130D9F08091810290918202A091A5
:100CE0008302B0918402892B8A2B8B2B79F481E0CB
:100CF000409185025091860260918702709188022E
:100D0000452B462B472B19F480E0089581E0089588
:100D10001092890210928502109286021092870228
:100D20001092880210928102109282021092830225
:100D30001092840280917D0290917E02A0917F02A8
:100D4000B091800280938A0290938B02A0938C02D0
:100D5000B0938D0208950E94A90C80918A0290910F
:100D60008B02A0918C02B0918D020196A11DB11D44
:100D700080938A0290938B02A0938C02B0938D0291
:100D80008091850290918602A0918702B09188029D
:100D90000196A11DB11D8093850290938602A093B8
:100DA0008702B0938802089580918502909186020F
:100DB000A0918702B09188020097A105B10569F161
:100DC00040918A0250918B0260918C0270918D0249
:100DD000415051096109710940938A0250938B0275
:100DE00060938C0270938D020197A109B1098093E1
:100DF000850290938602A0938702B0938802809127
:100E00008A0290918B02A0918C02B0918D02892B65
:100E10008A2B8B2B11F40C94A70C089580918502DA
:100E200090918602A0918702B0918802892B8A2B2B
:100E30008B2B89F48091810290918202A091830290
:100E4000B0918402892B8A2B8B2B29F40E94A90C48
:100E500081E080938902089580918902882321F09E
:100E6000109289020C94A70C08950E94AD0C8091F9
:100E70008A0290918B02A0918C02B0918D02019612
:100E8000A11DB11D80938A0290938B02A0938C02C6
:100E9000B0938D028091810290918202A091830291
:100EA000B09184020196A11DB11D8093810290939F
:100EB0008202A0938302B0938402089580918102FC
:100EC00090918202A0918302B09184020097A105C3
:100ED000B10569F140918A0250918B0260918C02B8
:100EE00070918D02415051096109710940938A0244
:100EF00050938B0260938C0270938D020197A1092D
:100F0000B1098093810290938202A0938302B093EF
:100F1000840280918A0290918B02A0918C02B09100
:100F20008D02892B8A2B8B2B11F40C94AB0C08951A
:100F30000E946706882311F083E1089580E00895F8
:100F4000CF93C82F0E9467068C2F0E94CB03C82F17
:100F500080917A0181110E9433048C2FCF910895E2
:100F6000CF930E946706882311F0C3E101C0C0E05F
:100F7000E0916D01F0916E018281815082830E9427
:100F8000BB0381E0809379010E94FD038C2FCF91F8
:100F90000895CF93C82F0E946706E0916D01F091EC
:100FA0006E018281815082838C2F0E94CB03C82FD7
:100FB000811108C00E94BB0381E0809379010E94E7
:100FC000FD0307C0E0916D01F0916E0182818F5F9A
:100FD00082838C2FCF910895CF930E946706882338
:100FE00011F0C3E101C0C0E0809171010E94430390
:100FF0000E9433048091710190917201A09173015C
:10100000B091740140917501509176016091770122
:101010007091780184179507A607B70711F40E940D
:1010200018038C2FCF910895CF93DF93EC010E948A
:101030006706882311F083E101C080E040917101CF
:1010400050917201609173017091740143305105A8
:101050006105710514F4488303C09091D801988309
:10106000DF91CF9108950F931F93CF93C82F8B01DA
:101070000E946706882311F083E101C080E0EC2F15
:10108000EE0FFF0BE650FE4F0190F081E02D9481B2
:101090009370F8019083CF911F910F910895880F5D
:1010A000990BFC01E650FE4FA081B181ED91FC91BE
:1010B0001197309769F01D921C922091D80193816D
:1010C0008481228314821382E92FF82F3097B9F795
:1010D0000895CF93C82F0E946706882311F083E1FB
:1010E00001C080E0EC2FF0E0EE0FFF1FEE5BFD4F44
:1010F000A081B1819091710112969C931297E09119
:101100006D01F0916E012081318114963C932E93F4
:101110001397B183A083938111969C9311972C917F
:1011200093819695921760F430E0D901A257BD4F94
:101130009C9191509C93220F331F9170292B2383F4
:10114000CF910895CF93DF93C82F0E94670688231D
:1011500011F0D3E101C0D0E0EC2FF0E0EE0FFF1F63
:10116000EE5BFD4F0190F081E02DA0916D01B091FB
:101170006E01818113968C931397838194818D9353
:101180009C93148213828091D80182830E9433043D
:101190008D2FDF91CF910895DC01ED91FC91848139
:1011A0009581DC01ED91FC9109941F93CF93DF931E
:1011B000182FEB010E946706882311F083E101C01C
:1011C00080E0E12FF0E0EE0FFF1FE752FE4F0190AD
:1011D000F081E02D0190F081E02D0190F081E02D73
:1011E00040815181628173814C835D836E837F83F3
:1011F0004481558166817781488359836A837B83E3
:101200004085518562857385488759876A877B87C2
:10121000DF91CF911F9108958F929F92AF92BF92CD
:10122000CF92DF92EF92FF920F931F93CF93C82F2D
:101230008B010E946706882311F083E101C080E0E2
:10124000EC2FF0E0EE0FFF1FE752FE4F0190F08110
:10125000E02D9685913029F5428553856485758505
:101260000190F081E02D0190F081E02DC088D188BF
:10127000E288F3884C155D056E057F0540F4848097
:101280009580A680B780480D591D6A1D7B1D4C199D
:101290005D096E097F09F80140835183628373837E
:1012A00001C085E0CF911F910F91FF90EF90DF90EB
:1012B000CF90BF90AF909F908F9008958F929F9204
:1012C000AF92BF92CF92DF92EF92FF920F931F9354
:1012D000CF93DF93D82F4A015B01680179010E9407
:1012E0006706882311F0C3E101C0C0E0ED2FF0E0F4
:1012F000EE0FFF1FE752FE4F0190F081E02D868533
:10130000811130C0A081B1810D90BC91A02D50966B
:101310004D915D916D917C915397480D591D6A1DBA
:101320007B1D14968D919D910D90BC91A02D8417DD
:101330009507A607B70740F4481B590B6A0B7B0BB0
:101340004150510961097109428753876487758744
:10135000C682D782E086F18681E08687CF010E942F
:10136000B90401C0C7E08C2FDF91CF911F910F917D
:10137000FF90EF90DF90CF90BF90AF909F908F90B5
:1013800008958F929F92AF92BF92CF92DF92EF9289
:10139000FF920F931F93CF93DF93C82F4A015B01F6
:1013A000680179010E946706882311F0D3E101C02A
:1013B000D0E0EC2FF0E0EE0FFF1FE752FE4F019060
:1013C000F081E02D868581110EC082869386A486E9
:1013D000B586C682D782E086F18681E08687CF0116
:1013E0000E94B90401C0D7E08D2FDF91CF911F91EA
:1013F0000F91FF90EF90DF90CF90BF90AF909F90B4
:101400008F9008950F931F93CF93DF93C82F0E945F
:101410006706882311F0D3E101C0D0E0EC2FF0E0A3
:10142000EE0FFF1FE752FE4F00811181F801868504
:10143000813031F4C8010E944805F801168601C0C8
:10144000D5E08D2FDF91CF911F910F91089561E02D
:1014500086E00E94AA0A61E083E00E94AA0A61E095
:1014600085E00E94AA0A80914A020C945B0660E023
:1014700070E085E00E94090C60E070E083E00E946B
:10148000090C64E670E086E00E94090C64E670E0F6
:1014900080E090E00E94920B0C94B30060E070E05A
:1014A00086E00E94090C60E070E085E00E94090C73
:1014B00064E670E083E00E94090C64E670E080E07E
:1014C00090E00E94920B0C94B30060E070E086E024
:1014D0000E94090C60E070E083E00E94090C64E661
:1014E00070E085E00E94090C64E670E080E090E026
:1014F0000E94920B0C94B30087EB91E00C942401B2
:101500000895833081F028F4813099F08230A1F081
:1015100008958730A9F08830B9F08430D1F48091F3
:1015200080008F7D03C0809180008F778093800042
:10153000089584B58F7702C084B58F7D84BD0895EA
:101540008091B0008F7703C08091B0008F7D809331
:10155000B0000895CF93DF9390E0FC01E458FF4F73
:101560002491FC01E057FF4F8491882361F190E0C2
:10157000880F991FFC01E255FF4FC591D491FC01E2
:10158000EC55FF4FA591B491611109C09FB7F89434
:101590008881209582238883EC912E230BC06230B2
:1015A00061F49FB7F8948881322F30958323888324
:1015B000EC912E2B2C939FBF06C08FB7F894E88137
:1015C0002E2B28838FBFDF91CF9108951F93CF9348
:1015D000DF93282F30E0F901E859FF4F8491F9019A
:1015E000E458FF4FD491F901E057FF4FC491CC2349
:1015F000C1F0162F81110E94810AEC2FF0E0EE0F4E
:10160000FF1FEC55FF4FA591B4919FB7F8941111AE
:1016100004C08C91D095D82302C0EC91DE2BDC93D2
:101620009FBFDF91CF911F9108951F920F920FB628
:101630000F9211242F933F934F935F936F937F9358
:101640008F939F93AF93BF93EF93FF9380919902F2
:1016500090919A02A0919B02B0919C0230919802C5
:1016600023E0230F2D3720F40196A11DB11D05C0E5
:1016700026E8230F0296A11DB11D209398028093A6
:10168000990290939A02A0939B02B0939C0280913E
:101690009D0290919E02A0919F02B091A00201969E
:1016A000A11DB11D80939D0290939E02A0939F0265
:1016B000B093A0020E947C0AFF91EF91BF91AF917D
:1016C0009F918F917F916F915F914F913F912F915A
:1016D0000F900FBE0F901F9018953FB7F894809110
:1016E0009D0290919E02A0919F02B091A00226B50A
:1016F000A89B05C02F3F19F00196A11DB11D3FBF4A
:10170000BA2FA92F982F8827820F911DA11DB11DD7
:10171000BC01CD0142E0660F771F881F991F4A95D3
:10172000D1F708958F929F92AF92BF92CF92DF929E
:10173000EF92FF926B017C010E946D0B4B015C01EB
:10174000C114D104E104F10401F10E94080C0E94CB
:101750006D0BDC01CB0188199909AA09BB09883EE8
:101760009340A105B10560F321E0C21AD108E10858
:10177000F10888EE880E83E0981EA11CB11CC114EC
:10178000D104E104F10419F7DBCFFF90EF90DF9073
:10179000CF90BF90AF909F908F90089584B5826056
:1017A00084BD84B5816084BD85B5826085BD85B505
:1017B000816085BDEEE6F0E0808181608083E1E8B4
:1017C000F0E01082808182608083808181608083EC
:1017D000E0E8F0E0808181608083E1EBF0E08081EF
:1017E00084608083E0EBF0E0808181608083EAE7C1
:1017F000F0E080818460808380818260808380814A
:10180000816080838081806880831092C100089508
:1018100008951F93CF93DF93182FEB0161E00E948F
:10182000AA0A209711F460E004C0CF3FD10539F433
:1018300061E0812FDF91CF911F910C94E60AE12F97
:10184000F0E0E859FF4FE491E330F9F048F4E1307B
:10185000B9F0E230A1F584B5806284BDC8BD34C062
:10186000E730E9F0E83019F1E43049F58091800083
:10187000806280938000D0938B00C0938A0024C044
:1018800084B5806884BDC7BD1FC08091800080681A
:1018900080938000D0938900C093880015C0809108
:1018A000B00080688093B000C093B3000DC08091F9
:1018B000B00080628093B000C093B40005C0C0380F
:1018C000D1050CF0B5CFAFCFDF91CF911F91089527
:1018D000FFCFFFCFCF93DF93880F990BFC01EE5F13
:1018E000FD4FC081D181AC81BD8111978A819B81DF
:1018F000A80FB91F2D85CD010197FD013297223028
:1019000019F42BEA30E002C027EC30E02C93DC0124
:101910003C939E818F819083DF018E93CF01079747
:101920001E928A179B07E1F780E8DF0118978C93D6
:10193000CF0144971E928A179B07E1F7A881B981CE
:101940007597ED93FC93DF91CF9108950895789466
:101950000895F894089578940895F8940895089552
:101960000E94CE0B0E94AF0C0E94800A0E94270AA0
:101970008091A1020E945B0680E090E00895809132
:101980004A028093A102089508951F920F920FB604
:101990000F9211242F933F934F935F936F937F93F5
:1019A0008F939F93AF93BF93EF93FF93E091D401F5
:1019B000F091D5010995FF91EF91BF91AF919F9162
:1019C0008F917F916F915F914F913F912F910F90E8
:1019D0000FBE0F901F9018951F920F920FB60F9287
:1019E00011242F933F934F935F936F937F938F9324
:1019F0009F93AF93BF93EF93FF93E091D601F09144
:101A0000D7010995FF91EF91BF91AF919F918F9170
:101A10007F916F915F914F913F912F910F900FBEEA
:101A20000F901F901895F8940C941C0DEE0FFF1F4B
:0C1A30000590F491E02D0994F894FFCF8C
:101A3C00000000000000000000000000000000009A
:101A4C00000000000000000000000000000000008A
:101A5C00000000000000000000000000000000007A
:101A6C00000000000000000000000000000000006A
:101A7C00000000000000000000000000000000005A
:101A8C00000000000000000000000000000000004A
:101A9C000000000000000000FF0000340200009372
:101AAC0002FFFFFFFFFFFFFFFF0000DF0100000050
:101ABC0000000400000004000002E8010000000027
:101ACC00000400000004000002F10100000000000E
:101ADC0004000000040000020000000300000000ED
:101AEC000200000000010001000000FFFF000001E7
:101AFC0000000000000000000000000000000004D6
:101B0C0000FF0000C40CC40CFF99018A017B01B7D3
:101B1C0001CC08E501480602B701CC08EE014806E5
:101B2C0000B701CC08F701480601B201AD01A801CC
:101B3C009302260218020A023402A403A80300012D
:101B4C004E0A000002030100A203A2020001650A72
:101B5C00000001020100A603B2040001370A0000D4
:101B6C0000010100B205B4055000680C0000030030
:101B7C000100CF01010101000000005E072C0735B8
:101B8C00070E07A204AB068F04D406B00751065902
:101B9C00066908A007A208C907D50814080C094C47
:0C1BAC00065E09EC07C109020A330800BC
:00000001FF
